:0900F100C2988599A07F507EC3DE
:1000FA00E4FDFCC3ED9FEC9E50070DBD00010C8092
:01010A00F202
:01010B0022D1
:1000030012010C7F0A7E001200FA120021309007C1
:0E0013007F3012009E80057F3012003E80FE7E
:0C010C00E4FF74302FF8A6070FBF20F6A8
:0101180022C4
:10002100759850758920E4F58774FDF58BF58D750C
:03003100884022E2
:02009E00A907B0
:1000A00075A0AA7599AA3099FDC2993098FDC29899
:1000B000E59964BB70EA1200F3E4FBFAE92AF8E67A
:1000C000F5A01200F6E92AF8E6F5992BFB3099FD28
:1000D000C2990ABA20E62097010B8BA01200F68B7A
:1000E000993099FDC2993098FD1200F1E59970C9D7
:0100F00022ED
:02003E00AB070E
:100040003098FD1200F1E59964AA70F475A0BB1216
:1000500000FA7599BB3099FDC299E4FFFE3098FD16
:10006000C298EB2EF8A699E6F5A02FFF0EBE20ED64
:100070008FA03098FDC2988599A0E5996F700FF513
:10008000A01200F6E4F5993099FDC29980CC75A0D4
:0E009000FF1200F67599FF3099FDC29980BCF1
:03000000020119E1
:0C011900787FE4F6D8FD75814F020003EA
:00000001FF
